{
  "_format": "hh-sol-artifact-1",
  "contractName": "MoneyRouter",
  "sourceName": "contracts/MoneyRouter.sol",
  "abi": [
    {
      "inputs": [
        {
          "internalType": "contract ISuperfluid",
          "name": "host",
          "type": "address"
        },
        {
          "internalType": "address",
          "name": "_owner",
          "type": "address"
        }
      ],
      "stateMutability": "nonpayable",
      "type": "constructor"
    },
    {
      "inputs": [
        {
          "internalType": "address",
          "name": "",
          "type": "address"
        }
      ],
      "name": "accountList",
      "outputs": [
        {
          "internalType": "bool",
          "name": "",
          "type": "bool"
        }
      ],
      "stateMutability": "view",
      "type": "function"
    },
    {
      "inputs": [],
      "name": "cfaV1",
      "outputs": [
        {
          "internalType": "contract ISuperfluid",
          "name": "host",
          "type": "address"
        },
        {
          "internalType": "contract IConstantFlowAgreementV1",
          "name": "cfa",
          "type": "address"
        }
      ],
      "stateMutability": "view",
      "type": "function"
    },
    {
      "inputs": [
        {
          "internalType": "address",
          "name": "_newOwner",
          "type": "address"
        }
      ],
      "name": "changeOwner",
      "outputs": [],
      "stateMutability": "nonpayable",
      "type": "function"
    },
    {
      "inputs": [
        {
          "internalType": "contract ISuperfluidToken",
          "name": "token",
          "type": "address"
        },
        {
          "internalType": "address",
          "name": "receiver",
          "type": "address"
        },
        {
          "internalType": "int96",
          "name": "flowRate",
          "type": "int96"
        }
      ],
      "name": "createFlowFromContract",
      "outputs": [],
      "stateMutability": "nonpayable",
      "type": "function"
    },
    {
      "inputs": [
        {
          "internalType": "contract ISuperfluidToken",
          "name": "token",
          "type": "address"
        },
        {
          "internalType": "int96",
          "name": "flowRate",
          "type": "int96"
        }
      ],
      "name": "createFlowIntoContract",
      "outputs": [],
      "stateMutability": "nonpayable",
      "type": "function"
    },
    {
      "inputs": [
        {
          "internalType": "contract ISuperfluidToken",
          "name": "token",
          "type": "address"
        },
        {
          "internalType": "address",
          "name": "receiver",
          "type": "address"
        }
      ],
      "name": "deleteFlowFromContract",
      "outputs": [],
      "stateMutability": "nonpayable",
      "type": "function"
    },
    {
      "inputs": [
        {
          "internalType": "contract ISuperfluidToken",
          "name": "token",
          "type": "address"
        }
      ],
      "name": "deleteFlowIntoContract",
      "outputs": [],
      "stateMutability": "nonpayable",
      "type": "function"
    },
    {
      "inputs": [],
      "name": "owner",
      "outputs": [
        {
          "internalType": "address",
          "name": "",
          "type": "address"
        }
      ],
      "stateMutability": "view",
      "type": "function"
    },
    {
      "inputs": [
        {
          "internalType": "address",
          "name": "_account",
          "type": "address"
        }
      ],
      "name": "removeAccount",
      "outputs": [],
      "stateMutability": "nonpayable",
      "type": "function"
    },
    {
      "inputs": [
        {
          "internalType": "contract ISuperToken",
          "name": "token",
          "type": "address"
        },
        {
          "internalType": "uint256",
          "name": "amount",
          "type": "uint256"
        }
      ],
      "name": "sendLumpSumToContract",
      "outputs": [],
      "stateMutability": "nonpayable",
      "type": "function"
    },
    {
      "inputs": [
        {
          "internalType": "contract ISuperfluidToken",
          "name": "token",
          "type": "address"
        },
        {
          "internalType": "address",
          "name": "receiver",
          "type": "address"
        },
        {
          "internalType": "int96",
          "name": "newFlowRate",
          "type": "int96"
        }
      ],
      "name": "updateFlowFromContract",
      "outputs": [],
      "stateMutability": "nonpayable",
      "type": "function"
    },
    {
      "inputs": [
        {
          "internalType": "contract ISuperfluidToken",
          "name": "token",
          "type": "address"
        },
        {
          "internalType": "int96",
          "name": "newFlowRate",
          "type": "int96"
        }
      ],
      "name": "updateFlowIntoContract",
      "outputs": [],
      "stateMutability": "nonpayable",
      "type": "function"
    },
    {
      "inputs": [
        {
          "internalType": "address",
          "name": "_account",
          "type": "address"
        }
      ],
      "name": "whitelistAccount",
      "outputs": [],
      "stateMutability": "nonpayable",
      "type": "function"
    },
    {
      "inputs": [
        {
          "internalType": "contract ISuperToken",
          "name": "token",
          "type": "address"
        },
        {
          "internalType": "uint256",
          "name": "amount",
          "type": "uint256"
        }
      ],
      "name": "withdrawFunds",
      "outputs": [],
      "stateMutability": "nonpayable",
      "type": "function"
    }
  ],
  "bytecode": "0x60806040523480156200001157600080fd5b50604051620011e9380380620011e983398101604081905262000034916200020c565b6001600160a01b0382166200004d576200004d6200024b565b62000089604051806060016040528060248152602001620011c5602491396000546001600160a01b031662000181602090811b6200073617901c565b600080546001600160a01b0319166001600160a01b03838116919091179091556040805180820182529184168083529051635b69006f60e11b81527fa9214cc96615e0085d3bb077758db69497dc2dce3b2b1e97bc93c3d18d83efd3600482015260208301919063b6d200de90602401602060405180830381865afa15801562000117573d6000803e3d6000fd5b505050506040513d601f19601f820116820180604052508101906200013d919062000261565b6001600160a01b039081169091528151600180546001600160a01b031990811692841692909217905560209092015160028054909316911617905550620002f19050565b620001ce82826040516024016200019a92919062000288565b60408051601f198184030181529190526020810180516001600160e01b0390811663319af33360e01b17909152620001d216565b5050565b80516a636f6e736f6c652e6c6f67602083016000808483855afa5050505050565b6001600160a01b03811681146200020957600080fd5b50565b600080604083850312156200022057600080fd5b82516200022d81620001f3565b60208401519092506200024081620001f3565b809150509250929050565b634e487b7160e01b600052600160045260246000fd5b6000602082840312156200027457600080fd5b81516200028181620001f3565b9392505050565b604081526000835180604084015260005b81811015620002b8576020818701810151606086840101520162000299565b81811115620002cb576000606083860101525b506001600160a01b0393909316602083015250601f91909101601f191601606001919050565b610ec480620003016000396000f3fe608060405234801561001057600080fd5b50600436106100ea5760003560e01c8063a6f9dae11161008c578063c2f7c65411610066578063c2f7c654146101cc578063c4740a95146101df578063d3112b2e146101f2578063d3a07fcd1461022c57600080fd5b8063a6f9dae114610193578063b9f7b12b146101a6578063c1075329146101b957600080fd5b806363e0c2f8116100c857806363e0c2f81461012a5780636715e19f1461013d5780638da5cb5b14610150578063a5510b321461018057600080fd5b8063097e69ef146100ef57806326ff92e4146101045780632fca924914610117575b600080fd5b6101026100fd366004610b23565b61025f565b005b610102610112366004610b6a565b6102c3565b610102610125366004610b96565b610384565b610102610138366004610bcb565b6103db565b61010261014b366004610bcb565b610463565b600054610163906001600160a01b031681565b6040516001600160a01b0390911681526020015b60405180910390f35b61010261018e366004610b96565b6104bc565b6101026101a1366004610bcb565b610513565b6101026101b4366004610b23565b61058f565b6101026101c7366004610b6a565b6105e5565b6101026101da366004610bef565b610661565b6101026101ed366004610bcb565b6106bb565b60015460025461020c916001600160a01b03908116911682565b604080516001600160a01b03938416815292909116602083015201610177565b61024f61023a366004610bcb565b60036020526000908152604090205460ff1681565b6040519015158152602001610177565b6000546001600160a01b031633148061028c57503360009081526003602052604090205460ff1615156001145b6102b15760405162461bcd60e51b81526004016102a890610c28565b60405180910390fd5b6102be600183858461077b565b505050565b6000546001600160a01b03163314806102f057503360009081526003602052604090205460ff1615156001145b61030c5760405162461bcd60e51b81526004016102a890610c28565b6040516323b872dd60e01b8152336004820152306024820152604481018290526001600160a01b038316906323b872dd906064015b6020604051808303816000875af1158015610360573d6000803e3d6000fd5b505050506040513d601f19601f820116820180604052508101906102be9190610c54565b6000546001600160a01b03163314806103b157503360009081526003602052604090205460ff1615156001145b6103cd5760405162461bcd60e51b81526004016102a890610c28565b6102be6001333085856107a1565b6000546001600160a01b0316331461043f5760405162461bcd60e51b815260206004820152602160248201527f6f6e6c79206f776e65722063616e2077686974656c697374206163636f756e746044820152607360f81b60648201526084016102a8565b6001600160a01b03166000908152600360205260409020805460ff19166001179055565b6000546001600160a01b031633148061049057503360009081526003602052604090205460ff1615156001145b6104ac5760405162461bcd60e51b81526004016102a890610c28565b6104b960013330846107d0565b50565b6000546001600160a01b03163314806104e957503360009081526003602052604090205460ff1615156001145b6105055760405162461bcd60e51b81526004016102a890610c28565b6102be6001333085856107f0565b6000546001600160a01b0316331461056d5760405162461bcd60e51b815260206004820152601f60248201527f6f6e6c79206f776e65722063616e206368616e6765206f776e6572736869700060448201526064016102a8565b600080546001600160a01b0319166001600160a01b0392909216919091179055565b6000546001600160a01b03163314806105bc57503360009081526003602052604090205460ff1615156001145b6105d85760405162461bcd60e51b81526004016102a890610c28565b6102be6001838584610815565b6000546001600160a01b031633148061061257503360009081526003602052604090205460ff1615156001145b61062e5760405162461bcd60e51b81526004016102a890610c28565b60405163a9059cbb60e01b8152336004820152602481018290526001600160a01b0383169063a9059cbb90604401610341565b6000546001600160a01b031633148061068e57503360009081526003602052604090205460ff1615156001145b6106aa5760405162461bcd60e51b81526004016102a890610c28565b6106b760013083856107d0565b5050565b6000546001600160a01b031633146107155760405162461bcd60e51b815260206004820152601e60248201527f6f6e6c79206f776e65722063616e2072656d6f7665206163636f756e7473000060448201526064016102a8565b6001600160a01b03166000908152600360205260409020805460ff19169055565b6106b7828260405160240161074c929190610cce565b60408051601f198184030181529190526020810180516001600160e01b031663319af33360e01b179052610835565b60408051600081526020810190915261079b908590859085908590610856565b50505050565b6040805160008152602081019091526060906107c69087908790879087908790610954565b9695505050505050565b60408051600081526020810190915261079b908590859085908590610a5a565b6040805160008152602081019091526060906107c69087908790879087908790610a9f565b60408051600081526020810190915261079b908590859085908590610acd565b80516a636f6e736f6c652e6c6f67602083016000808483855afa5050505050565b845460018601546001600160a01b03918216916339255d5b9116806350209a6287898860005b6040519080825280601f01601f1916602001820160405280156108a6576020820181803683370190505b506040516024016108ba9493929190610d0e565b60408051808303601f1901815291815260208201805160e094851b6001600160e01b03909116179052519185901b6001600160e01b0319168252610905939250908690600401610d44565b6000604051808303816000875af1158015610924573d6000803e3d6000fd5b505050506040513d6000823e601f3d908101601f1916820160405261094c9190810190610d7a565b505050505050565b855460018701546060916001600160a01b03908116916339255d5b91168063354b9590888b8b8a60005b6040519080825280601f01601f1916602001820160405280156109a8576020820181803683370190505b506040516024016109bd959493929190610e1c565b60408051808303601f1901815291815260208201805160e094851b6001600160e01b03909116179052519185901b6001600160e01b0319168252610a08939250908790600401610d44565b6000604051808303816000875af1158015610a27573d6000803e3d6000fd5b505050506040513d6000823e601f3d908101601f19168201604052610a4f9190810190610d7a565b979650505050505050565b845460018601546040805160008152602081019091526001600160a01b03928316926339255d5b921690819063b4b333c6906108ba9088908b908b9060448101610e5a565b855460018701546060916001600160a01b03908116916339255d5b9116806394229ecb888b8b8a600061097e565b845460018601546001600160a01b03918216916339255d5b9116806362fc305e878988600061087c565b6001600160a01b03811681146104b957600080fd5b8035600b81900b8114610b1e57600080fd5b919050565b600080600060608486031215610b3857600080fd5b8335610b4381610af7565b92506020840135610b5381610af7565b9150610b6160408501610b0c565b90509250925092565b60008060408385031215610b7d57600080fd5b8235610b8881610af7565b946020939093013593505050565b60008060408385031215610ba957600080fd5b8235610bb481610af7565b9150610bc260208401610b0c565b90509250929050565b600060208284031215610bdd57600080fd5b8135610be881610af7565b9392505050565b60008060408385031215610c0257600080fd5b8235610c0d81610af7565b91506020830135610c1d81610af7565b809150509250929050565b6020808252601290820152711b5d5cdd08189948185d5d1a1bdc9a5e995960721b604082015260600190565b600060208284031215610c6657600080fd5b81518015158114610be857600080fd5b60005b83811015610c91578181015183820152602001610c79565b8381111561079b5750506000910152565b60008151808452610cba816020860160208601610c76565b601f01601f19169290920160200192915050565b604081526000610ce16040830185610ca2565b905060018060a01b03831660208301529392505050565b634e487b7160e01b600052604160045260246000fd5b6001600160a01b03858116825284166020820152600b83900b60408201526080606082018190526000906107c690830184610ca2565b6001600160a01b0384168152606060208201819052600090610d6890830185610ca2565b82810360408401526107c68185610ca2565b600060208284031215610d8c57600080fd5b815167ffffffffffffffff80821115610da457600080fd5b818401915084601f830112610db857600080fd5b815181811115610dca57610dca610cf8565b604051601f8201601f19908116603f01168101908382118183101715610df257610df2610cf8565b81604052828152876020848701011115610e0b57600080fd5b610a4f836020830160208801610c76565b6001600160a01b038681168252858116602083015284166040820152600b83900b606082015260a060808201819052600090610a4f90830184610ca2565b6001600160a01b0385811682528481166020830152831660408201526080606082018190526000906107c690830184610ca256fea2646970667358221220e529f212767e4d73431025adcb3b63215596d38fc12fd634d721b069cab19e2b64736f6c634300080d00334465706c6f79696e672061204d6f6e657920526f757465722077697468206f776e65723a",
  "linkReferences": {},
  "deployedLinkReferences": {}
}